S01700004763634170706C69636174696F6E332E7372656359
S11300000C942A000C9447000C9447000C9447006D
S11300100C9447000C9447000C9447000C94470040
S11300200C9447000C9447000C9447000C94470030
S11300300C9447000C9447000C9447000C94470020
S11300400C9447000C9447000C9447000C94470010
S11300500C94470011241FBECFE5D4E0DEBFCDBF12
S113006010E0A0E6B0E0E6ECF8E002C005900D92E6
S1130070A437B107D9F720E0A4E7B0E001C01D928E
S1130080AE37B207E1F70E9449000C9461040C9466
S113009000008FEF84BB81BB8ABB0E9452020E9486
S11300A05F0288B3806188BB82E00E94570280E0CF
S11300B00E94570288B38F7E88BB89EF90E0019736
S11300C0F1F700C000000E945B0280937B0088B3BC
S11300D0806188BB81E00E94570280E00E94570241
S11300E088B38F7E88BB89EF90E00197F1F700C059
S11300F000000E945B0280937A0088BB60917A00C2
S113010080917B000E94740180917B0090E0982F85
S1130110882720917A00820F911D90937D0080930F
S11301207C008BE792E90197F1F700C000000E9480
S1130130E7000E94F20080ED97E00E94DE000E943A
S1130140D70082E30E9466010E94A700FACF809143
S1130150620090916300892BD1F08091740090919A
S11301607500892BA1F480917C0090917D000E9400
S1130170F90080937C0090937D0080937A009093A3
S11301807B00682F70E0892F90E00E9474018091B9
S11301907400909175000196609160007091610007
S11301A00E9439049093750080937400089581E04F
S11301B090E09093630080936200089564E670E099
S11301C00E943904709361006093600008951DBC1F
S11301D01CBC87E891E09BBD8ABD88E08FBD8FE0A1
S11301E08EBD089589B7806189BF8FB780688FBF3E
S11301F008958F929F92AF92BF92CF92DF92EF9227
S1130200FF920F931F93CF93DF938C01BC016E5128
S11302107109072E000C880B990B0E9417034B01E0
S11302205C012091760030917700409178005091E4
S113023079000E9473026B017C01609376007093D5
S1130240770080937800909379002DEC3CEC4CEC93
S11302505DE3C501B4010E94A8034B015C012AE0DF
S113026037ED43E25CE3C701B6010E94A8039B019A
S1130270AC01C501B4010E9473020E94DF02EB01CC
S1130280072E000C880B990B0E94170327E636E211
S11302904AE353E40E94A30318161CF0DD2334F44C
S11302A003C0CAEBD0E002C0C0E0D0E0C8018C1BA0
S11302B09D0BDF91CF911F910F91FF90EF90DF90F5
S11302C0CF90BF90AF909F908F900895982F80E02B
S11302D064E670E00E9439046CBF8AE683BF87B38A
S11302E0886087BB12BE0895CF93DF93CDB7DEB786
S11302F060970FB6F894DEBF0FBECDBF282F80E104
S1130300E4E6F0E0DE01119601900D928A95E1F7A2
S11303106295669566956370222354F4219566234D
S113032069F070E08BE490E00E94390481E007C03A
S113033089E1689F602D112480E001C081E012BA38
S1130340813019F480E485BB12C0243678F089E248
S1130350289F812D112482958F70E1E0F0E0EC0F4D
S1130360FD1FE80FF11D808185BB01C015BA81E036
S113037082BB81EE94E00197F1F700C0000012BA4D
S11303802A30D8F089E2289F812D112482958F701C
S1130390E22F94E6899FE01911249DECE99F812DB9
S11303A01124869586958695E1E0F0E0EC0FFD1F1B
S11303B0E80FF11D808185BB01C015BA82E082BBC4
S11303C081EE94E00197F1F700C0000012BA8DECC1
S11303D0289F912D1124969596959695990F392FCE
S11303E0330F330F930F291BE1E0F0E0EC0FFD1FF7
S11303F0E20FF11D9081906895BB94E092BBE1EE11
S1130400F4E03197F1F700C0000012BA689F812D23
S11304101124869586958695E1E0F0E0EC0FFD1FAA
S1130420E80FF11D908195BB98E092BBE1EEF4E0FA
S11304303197F1F700C0000012BA880F982F990F76
S1130440990F890F681BE1E0F0E0EC0FFD1FE60F48
S1130450F11D808185BB80E182BB81EE94E0019730
S1130460F1F700C0000012BA83E685BB80E282BBCC
S1130470E1EEF4E03197F1F700C0000012BA8D8587
S113048085BB80E482BB81EE94E00197F1F700C064
S1130490000060960FB6F894DEBF0FBECDBFDF91AB
S11304A0CF91089580EB87BB87E58DB908958FB907
S11304B0779BFECF0895779BFECF8FB1089588B3C5
S11304C0806188BB80E80E94570284E00E94570242
S11304D088B38F7E88BB8BE792E90197F1F700C060
S11304E0000008955058BB27AA270E948A020C9442
S11304F069030E945B0338F00E94620320F039F420
S11305009F3F19F426F40C9458030EF4E095E7FB8E
S11305100C945203E92F0E947A0358F3BA17620726
S113052073078407950720F079F4A6F50C949C03CF
S11305300EF4E0950B2EBA2FA02D0B01B9019001FA
S11305400C01CA01A0011124FF27591B99F0593F3E
S113055050F4503E68F11A16F040A22F232F342F86
S11305604427585FF3CF469537952795A795F040D4
S11305705395C9F77EF41F16BA0B620B730B840BE9
S1130580BAF09150A1F0FF0FBB1F661F771F881FA1
S1130590C2F70EC0BA0F621F731F841F48F48795F9
S11305A077956795B795F7959E3F08F0B0CF9395EB
S11305B0880F08F09927EE0F9795879508950E9464
S11305C0E6026894B1110C949D0308950E9482037D
S11305D088F09F5798F0B92F9927B751B0F0E1F000
S11305E0660F771F881F991F1AF0BA95C9F714C0B0
S11305F0B13091F00E949C03B1E008950C949C03E7
S1130600672F782F8827B85F39F0B93FCCF38695E8
S113061077956795B395D9F73EF490958095709545
S113062061957F4F8F4F9F4F0895E89409C097FBC2
S11306303EF490958095709561957F4F8F4F9F4FB5
S11306409923A9F0F92F96E9BB279395F6958795F9
S113065077956795B795F111F8CFFAF4BB0F11F4BC
S113066060FF1BC06F5F7F4F8F4F9F4F16C0882363
S113067011F096E911C0772321F09EE8872F762F99
S113068005C0662371F096E8862F70E060E02AF0DA
S11306909A95660F771F881FDAF7880F96958795C6
S11306A097F9089597F99F6780E870E060E00895EE
S11306B09FEF80EC089500240A9416161706180676
S11306C00906089500240A94121613061406050652
S11306D00895092E0394000C11F4882352F0BB0FE3
S11306E040F4BF2B11F460FF04C06F5F7F4F8F4F46
S11306F09F4F089557FD9058440F551F59F05F3F81
S113070071F04795880F97FB991F61F09F3F79F02F
S113071087950895121613061406551FF2CF4695B1
S1130720F1DF08C0161617061806991FF1CF869533
S11307307105610508940895E894BB276627772717
S1130740CB0197F908950E94150408F48FEF0895DA
S11307500E94BB030C9469030E945B0338F00E945F
S1130760620320F0952311F00C9452030C94580367
S113077011240C949D030E947A0370F3959FC1F396
S1130780950F50E0551F629FF001729FBB27F00D3B
S1130790B11D639FAA27F00DB11DAA1F649F662790
S11307A0B00DA11D661F829F2227B00DA11D621FDF
S11307B0739FB00DA11D621F839FA00D611D221F99
S11307C0749F3327A00D611D231F849F600D211D7D
S11307D0822F762F6A2F11249F5750409AF0F1F000
S11307E088234AF0EE0FFF1FBB1F661F771F881F69
S11307F091505040A9F79E3F510580F00C9452034C
S11308000C949D035F3FE4F3983ED4F3869577956B
S11308106795B795F795E7959F5FC1F7FE2B880F0E
S1130820911D9695879597F90895990F0008550F8E
S1130830AA0BE0E8FEEF16161706E807F907C0F062
S113084012161306E407F50798F0621B730B840B6A
S1130850950B39F40A2661F0232B242B252B21F444
S113086008950A2609F4A140A6958FEF811D811DE4
S1130870089597FB072E16F4009407D077FD09D04E
S11308800E944D0407FC05D03EF4909581959F4F3E
S11308900895709561957F4F0895AA1BBB1B51E184
S11308A007C0AA1FBB1FA617B70710F0A61BB70BDC
S11308B0881F991F5A95A9F780959095BC01CD0181
S10908C00895F894FFCF37
S11308C6010001003F065B4F666D7D077F6F777CF5
S10708D6395E797199
S9030000FC
