S01400004156525F61746D65676133322E73726563F4
S11300000C942A000C9434000C9434000C943400A6
S11300100C9434000C9434000C9434000C9434008C
S11300200C9434000C9434000C9434000C9434007C
S11300300C9434000C9434000C9434000C9434006C
S11300400C9434000C9434000C9434000C9434005C
S11300500C94340011241FBECFE5D8E0DEBFCDBF21
S11300600E942D010C944D010C940000823419F16E
S113007018F4813439F06AC08334B1F1843409F45A
S11300804CC064C0413059F42AB381E090E002C00E
S1130090880F991F6A95E2F7822B8ABB08952AB3C9
S11300A081E090E002C0880F991F6A95E2F780957D
S11300B082238ABB0895413059F427B381E090E04C
S11300C002C0880F991F6A95E2F7822B87BB0895B7
S11300D027B381E090E002C0880F991F6A95E2F788
S11300E08095822387BB0895413059F424B381E07D
S11300F090E002C0880F991F6A95E2F7822B84BBB7
S1130100089524B381E090E002C0880F991F6A9596
S1130110E2F78095822384BB0895413059F421B3DA
S113012081E090E002C0880F991F6A95E2F7822B64
S113013081BB089521B381E090E002C0880F991F2C
S11301406A95E2F78095822381BB0895413059F482
S11301502AB381E090E002C0880F991F6A95E2F704
S1130160822B8ABB08952AB381E090E002C0880FF5
S1130170991F6A95E2F7809582238ABB0895823499
S1130180D9F018F4813431F04DC0833439F184341A
S1130190B9F148C029B381E090E0062E02C0880F6F
S11301A0991F0A94E2F730E08223932302C09595C5
S11301B087956A95E2F7089526B381E090E0062ECC
S11301C002C0880F991F0A94E2F730E08223932338
S11301D002C0959587956A95E2F7089523B381E067
S11301E090E0062E02C0880F991F0A94E2F730E0CF
S11301F08223932302C0959587956A95E2F7089523
S113020020B381E090E0062E02C0880F991F0A9463
S1130210E2F730E08223932302C0959587956A958F
S1130220E2F7089529B381E090E0062E02C0880F1A
S1130230991F0A94E2F730E08223932302C0959534
S113024087956A95E2F708958AE683BF87B3886045
S113025087BB12BE08958CBF08950E94240180E0DC
S11302600E942B0140E060E082E40E943600C0E07E
S113027060E082E40E94BF008823D1F3CA3F10F4F7
S1130280C75E01C0C0E08C2F0E942B0160E082E4B5
S11102900E94BF008111FACFEBCFF894FFCF8C
S9030000FC
