S016000052544F535F41737369676D656E742E73726563BC
S11300000C9433000C9450000C9450000C94500049
S11300100C9450000C9450000C9450000C948702E3
S11300200C9450000C9450000C9450000C9450000C
S11300300C9450000C9450000C9450000C945000FC
S11300400C9450000C9450000C9450000C945000EC
S11300500C945000080C080C370C3C0C520C080C87
S1130060080C370C3C0C11241FBECFE5D8E0DEBFD2
S1130070CDBF10E0A0E6B0E0EAEEF9E102C00590E1
S11300800D92A038B107D9F726E0A0E8B0E001C08E
S11300901D92A03EB207E1F70E948E000C94F30C6F
S11300A00C940000CF93DF9300D0CDB7DEB70E944D
S11300B0D4069A83898395B388E0892785BB64E154
S11300C070E0CE0101960E94CD08F5CFCF93DF9367
S11300D000D0CDB7DEB70E94D4069A83898395B346
S11300E080E1892785BB63E270E0CE0101960E941E
S11300F0CD08F5CFCF93DF9300D0CDB7DEB70E9404
S1130100D4069A83898395B380E2892785BB6CE3FF
S113011070E0CE0101960E94CD08F5CF8FEF84BB2D
S11301200F2EFEEDEF2EF6E0FF2EF02D00E020E086
S113013030E045E550E061E670E082E590E00E9441
S11301404A060F2EFCEDEF2EF6E0FF2EF02D20E0F8
S113015030E045E550E067E670E086E690E00E9416
S11301604A060F2EFAEDEF2EF6E0FF2EF02D20E0DA
S113017030E045E550E06DE670E08AE790E00E94EB
S11301804A060E949E06FFCFFC0103969283818358
S11301902FEF3FEF34832383968385839087878370
S11301A010820895FC01118610860895CF93DF9381
S11301B0EB01488159814F3F2FEF520721F4FC0195
S11301C0A781B0850DC0DC01139601C0DF01129632
S11301D0ED91FC9113972081318142175307B0F7B9
S11301E01296ED91FC911397FB83EA83D583C48324
S11301F0BD83AC831396DC93CE931297998788873B
S1130200FC0120812F5F2083DF91CF910895CF934C
S1130210DF93FC01A085B185C281D381848195815E
S11302209D838C83C481D581828193819B838A83BE
S113023011968D919C911297E817F90731F48481F6
S1130240958112969C938E931197118610868C91AA
S113025081508C938C91DF91CF9108951BBC8CE7D6
S11302608ABD8BE08EBD89B7806189BF089531E175
S1130270FC013083319722E220833197A3E3A083EA
S1130280319760833197708331971082319760E89A
S1130290608331971082319762E06083319763E025
S11302A06083319764E06083319765E060833197C0
S11302B066E06083319767E06083319768E060832C
S11302C0319769E06083319760E1608331973083CF
S11302D0319732E13083319733E13083319734E120
S11302E03083319735E13083319736E1308331976C
S11302F037E13083319738E13083319739E1308306
S1130300319730E23083319731E230833197208363
S1130310319723E22083319740833197508331977B
S113032026E22083319727E22083319728E2208335
S1130330319729E22083319720E32083319721E309
S11303402083869708950E942E01A091BC06B09147
S1130350BD06CD91CDBFDD91DEBFFF91EF91DF9161
S1130360CF91BF91AF919F918F917F916F915F9149
S11303704F913F912F911F910F91FF90EF90DF903C
S1130380CF90BF90AF909F908F907F906F905F9031
S11303904F903F902F901F900F900FBE0F90089595
S11303A081E008950F920FB6F8940F921F921124D2
S11303B02F923F924F925F926F927F928F929F9271
S11303C0AF92BF92CF92DF92EF92FF920F931F935F
S11303D02F933F934F935F936F937F938F939F9349
S11303E0AF93BF93CF93DF93EF93FF93A091BC069A
S11303F0B091BD060DB60D920EB60D920E940F0976
S1130400A091BC06B091BD06CD91CDBFDD91DEBFFC
S1130410FF91EF91DF91CF91BF91AF919F918F9118
S11304207F916F915F914F913F912F911F910F9108
S1130430FF90EF90DF90CF90BF90AF909F908F9000
S11304407F906F905F904F903F902F901F900F90F0
S11304500FBE0F9008950F920FB6F8940F921F924B
S113046011242F923F924F925F926F927F928F92BC
S11304709F92AF92BF92CF92DF92EF92FF920F932F
S11304801F932F933F934F935F936F937F938F9318
S11304909F93AF93BF93CF93DF93EF93FF93A09179
S11304A0BC06B091BD060DB60D920EB60D920E941B
S11304B0DE0681110E940F09A091BC06B091BD0611
S11304C0CD91CDBFDD91DEBFFF91EF91DF91CF9153
S11304D0BF91AF919F918F917F916F915F914F9158
S11304E03F912F911F910F91FF90EF90DF90CF904C
S11304F0BF90AF909F908F907F906F905F904F9040
S11305003F902F901F900F900FBE0F9008950E9460
S11305102B021895CF93DF93EC010E94CE068091B5
S1130520800090918100892B31F484E890E09093CD
S11305308100809380002097C9F08091820090917F
S113054083009E01280F391F2B3D45E0340788F4B2
S11305508217930788F4C0918000D0918100C80F5E
S1130560D91F309383002093820008C0C0E0D0E0FC
S113057005C0C0E0D0E002C0C0E0D0E00E94F807AF
S1130580CE01DF91CF91089508950FB6F8940F929C
S1130590FC01828D811102C081E001C080E00F90D6
S11305A00FBE0895FC01448D4423A9F050E0268138
S11305B03781240F351F378326838481958128173B
S11305C0390720F08081918197838683CB016681EE
S11305D077810E94EA0C08951F93CF93DF93EC0177
S11305E00FB6F8940F921E8D0BC08989882351F0A1
S11305F0CE0141960E94BE0981110E94B80A115091
S113060011169CF38FEF8E8F0F900FBE0FB6F894D8
S11306100F921D8D0BC08885882351F0CE0108965A
S11306200E94BE0981110E94B80A115011169CF350
S11306308FEF8D8F0F900FBEDF91CF911F91089593
S11306400F931F93CF93DF93FC01362F892B09F46B
S11306504DC0238D222309F44BC0022F10E08FEFED
S11306609FEFB8010E94D00C448D842F90E068174E
S1130670790708F43FC0EF010FB6F8940F92608138
S11306807181FB01249FE00DF11D1124FD83EC8396
S11306901A8E7B836A8301501109809FA001819F78
S11306A0500D909F500D1124CB01840F951F9F83F3
S11306B08E838FEF8D8F8E8F31110CC088858823A8
S11306C089F0CE0108960E94BE09882359F00E9441
S11306D0D20108C0CE0108960E94C400CE01419602
S11306E00E94C4000F900FBE81E005C080E003C0EB
S11306F080E001C080E0DF91CF911F910F910895B8
S11307000F931F93F801611103C01183008302C08A
S113071051834083838F648F61E0CF010E94200363
S11307201F910F910895DF92EF92FF920F931F9301
S1130730CF93DF93382FE62F882329F1682F70E0B9
S11307408FEF9FEF0E94D00C8E2F90E068177907EF
S1130750E8F03E9FC0011124813E2FEF9207C8F4B8
S1130760D42EDE2FC32F4F960E948A027C0100975D
S113077091F08C012D2DAC01415E5F4F6D2F8C2FBC
S11307800E94800308C0E12CF12C05C0E12CF12C5F
S113079002C0E12CF12CC701DF91CF911F910F9181
S11307A0FF90EF90DF900895CF92DF92EF92FF9247
S11307B00F931F93CF93DF9300D000D01F92CDB738
S11307C0DEB78C016B015D834C83E12C0FB6F8948A
S11307D00F92F801F28CFF20A9F0B601C8010E9423
S11307E0D202FA94F801F28E8085882339F0C80188
S11307F008960E94BE0981110E94D2010F900FBE7B
S113080081E053C08C819D81892B21F40F900FBE10
S113081080E04BC0E11006C0CE0101960E947B0A25
S1130820EE24E3940F900FBE0E94CE060FB6F89408
S11308300F92F801858D8F3F09F4158EF801868D8E
S11308408F3F09F4168E0F900FBEBE016C5F7F4F71
S1130850CE0101960E94860A81111BC0C8010E9424
S1130860C502882381F06C817D81C80141960E9474
S11308706309C8010E94EC020E94F8078111A6CF07
S11308800E94D201A3CFC8010E94EC020E94F80783
S11308909DCFC8010E94EC020E94F807C8010E9483
S11308A0C502882309F492CF80E00F900F900F9037
S11308B00F900F90DF91CF911F910F91FF90EF90C8
S11308C0DF90CF900895CF93DF93EC010FB6F894A7
S11308D00F928D8D8F3F09F41D8E8E8D8F3F09F4FD
S11308E01E8E0F900FBE8A8D811104C0CE014196D9
S11308F00E947509CE010E94EC02DF91CF91089508
S1130900E0918406F09185068081811107C08FEF04
S11309109FEF90936406809363060895E0918406A4
S1130920F09185060580F681E02D80819181909378
S11309306406809363060895CF93DF93EC018F8957
S1130940988D0E94C402CE010E94C402DF91CF910F
S113095008956F927F928F929F92AF92BF92CF929F
S1130960DF92EF920F931F93CF93DF93CDB7DEB750
S11309704C01D50157968D919C915897215031097E
S11309803C01620E731E6115710589F416C0822F35
S113099090E0FB01E80FF91F3081D501A80FB91FC2
S11309A059963C938081882329F02F5F01C020E071
S11309B0283068F3F50110A203C0D50159961C92A2
S11309C0B3E0BE1520F40F2EF3E0EF2EF02DF50169
S11309D0E68AC50102960E94D200C5010C960E94C7
S11309E0D200D5011996BC92AE92189784E090E09B
S11309F08E1991091D969C938E931C975396BC92C5
S1130A00AE92529784E0F501B196DF011D928A956A
S1130A10E9F7F50115A2A801B401C3010E94370149
S1130A20D5018D939C93C114D10419F0F601B182C0
S1130A30A082DF91CF911F910F91EF90DF90CF9023
S1130A40BF90AF909F908F907F906F900895CF93B9
S1130A50C0E010C08C2F90E09C01220F331F220FA6
S1130A60331F220F331F820F931F8856994F0E9402
S1130A70C400CF5FC43070F38FE896E00E94C400D6
S1130A8086E896E00E94C40089E796E00E94C400CC
S1130A9080E796E00E94C4008FE896E09093850674
S1130AA08093840686E896E090938306809382067A
S1130AB0CF910895CF93DF93EC010FB6F8940F9282
S1130AC080916E068F5F80936E068091BC06909134
S1130AD0BD06892B59F4D093BD06C093BC06809102
S1130AE06E06813099F40E94270510C080916A0631
S1130AF081110CC0E091BC06F091BD0696898E89E7
S1130B00891720F0D093BD06C093BC06809165067A
S1130B108F5F809365068E8990916B06981710F409
S1130B2080936B0690E0FC01EE0FFF1FEE0FFF1F9A
S1130B30EE0FFF1F8E0F9F1FFC01E856F94F018037
S1130B40F281E02DFD83EC83848195819F838E83E4
S1130B50A481B581CE01029613969C938E9312972D
S1130B6095838483EE89F0E0CF01880F991F880F65
S1130B70991F880F991FE80FF91FE856F94FFB8753
S1130B80EA8780818F5F80830F900FBE80916A0611
S1130B90882351F0E091BC06F091BD0696898E89B8
S1130BA0981710F40E94D201DF91CF910895CF934A
S1130BB0DF931CC00FB6F8940F92E0917506F09184
S1130BC07606C681D781CE0102960E9407018091E4
S1130BD06E06815080936E0680916F0681508093DB
S1130BE06F060F900FBECE010E949C0480916F0689
S1130BF08111E0CFDF91CF9108950E94D7058091B4
S1130C0098068230D0F30E94D201F7CF0F931F933E
S1130C10CF93DF93EC0100916C0610916D068091E7
S1130C20BC069091BD0602960E940701C00FD11F19
S1130C30E091BC06F091BD06D383C283C017D107EF
S1130C4068F46091BC067091BD0680918206909113
S1130C5083066E5F7F4F0E94D60017C06091BC066A
S1130C607091BD0680918406909185066E5F7F4FDA
S1130C700E94D6008091630690916406C817D90734
S1130C8020F4D0936406C0936306DF91CF911F9143
S1130C900F9108952F923F924F925F926F927F929D
S1130CA08F929F92AF92BF92CF92DF92EF92FF9278
S1130CB00F931F93CF93DF933C011B015A0129012A
S1130CC0CA010E948A026C01892B71F086E290E0CD
S1130CD00E948A02EC01892B19F0D88ECF8A06C0B3
S1130CE0C6010E94C40202C0C0E0D0E0209791F087
S1130CF0950140E050E0812C912C5E016701E02ECB
S1130D008201B101C3010E94A904CE010E945A05C7
S1130D1081E001C08FEFDF91CF911F910F91FF9080
S1130D20EF90DF90CF90BF90AF909F908F907F9087
S1130D306F905F904F903F902F900895EF92FF92A5
S1130D400F930F2EF1E6EF2EF6E0FF2EF02D00E0CC
S1130D5020E030E045E550E063E770E08DEF95E09A
S1130D600E944A06813011F40E94AE0C813081F455
S1130D70F8948FEF9FEF909364068093630681E06D
S1130D8080936A0610926D0610926C060E94A3016D
S1130D90809160000F91FF90EF900895809160061C
S1130DA08F5F8093600608950FB6F8940F92809138
S1130DB06C0690916D060F900FBE08950F931F93CC
S1130DC0CF93DF9380916006811101C1C0916C06BD
S1130DD0D0916D068E010F5F1F4F10936D06009327
S1130DE06C0601151105B9F480918406909185066D
S1130DF020918206309183063093850620938406E1
S1130E009093830680938206809166068F5F809319
S1130E1066060E9480048091630690916406081718
S1130E20190720F480E0B8C081E001C080E0E091BF
S1130E308406F09185069081911107C02FEF3FEF52
S1130E403093640620936306A7C0E0918406F09172
S1130E5085060580F681E02D0680F781E02D22814C
S1130E6033810217130728F4309364062093630632
S1130E7093C0A285B3852481358146815781E901D8
S1130E805D834C832681378144815581E9015B83ED
S1130E904A8311962D913C911297AF014E5F5F4F9B
S1130EA02417350731F42681378112963C932E930B
S1130EB01197138612869C9191509C93A489B589AD
S1130EC0109719F12685378560897189E9017D8339
S1130ED06C832089318966857785E9017B836A8300
S1130EE011966D917C9112979F01245F3F4F621779
S1130EF0730731F42089318912963C932E9311970C
S1130F00158A148A9C9191509C93268990916B0622
S1130F10921710F420936B0630E0D901AA0FBB1F7F
S1130F20AA0FBB1FAA0FBB1F2A0F3B1FD901A8562C
S1130F30B94F11960D90BC91A02DB583A48314963E
S1130F402D913C9115973783268314962D913C91CE
S1130F501597E9015B834A8315965C934E93149726
S1130F60A689B0E09D01220F331F220F331F220FE9
S1130F70331FA20FB31FA856B94FB387A2879C9102
S1130F809F5F9C932689E091BC06F091BD069689EB
S1130F90291708F049CF4BCFE091BC06F091BD066C
S1130FA0268930E0F901EE0FFF1FEE0FFF1FEE0F51
S1130FB0FF1F2E0F3F1FF901E856F94F9081923021
S1130FC008F081E09091670691110CC00CC08091EB
S1130FD06806909169060196909369068093680665
S1130FE080E001C081E0DF91CF911F910F910895BE
S1130FF0CF93DF930FB6F8940F92809160068150DF
S113100080936006809160068111BFC080916E0656
S1131010811196C0BDC0E0917E06F0917F060680E6
S1131020F781E02DA489B589C685D7858089918902
S11310309D838C83C089D189868597859B838A8388
S113104011962D913C911297CF010C9628173907D0
S113105031F48089918912969C938E931197158A05
S1131060148A8C9181508C93A285B385C481D581D7
S1131070868197819D838C83C681D7818481958164
S11310809B838A8311968D919C9112979F012E5F69
S11310903F4F8217930731F48681978112969C9370
S11310A08E931197138612868C9181508C93868926
S11310B090916B06981710F480936B0690E0DC0116
S11310C0AA0FBB1FAA0FBB1FAA0FBB1F8A0F9B1F10
S11310D0DC01A856B94F11960D90BC91A02DB58393
S11310E0A48314968D919C91159797838683149667
S11310F0CD91DC9115973B832A8315963C932E93CF
S11311001497A689B0E0CD01880F991F880F991F05
S1131110880F991FA80FB91FA856B94FB387A28784
S11311208C918F5F8C939689A091BC06B091BD067B
S113113056968C91981730F081E08093670602C030
S1131140E0E0F0E080917906811165CFEF2B11F09A
S11311500E948004C0916806D0916906209769F0C6
S11311600E94DE06882319F081E0809367062197A8
S1131170B9F7109269061092680680916706882371
S113118031F00E94D20181E003C080E001C080E020
S11311900F900FBEDF91CF9108950F931F93CF93BC
S11311A0DF938C01EB010E94CE0640916C065091B6
S11311B06D06F80120813181C9018C0F9D1F4217F2
S11311C0530740F48217930768F44817590760F0EF
S11311D0C0E00FC08217930748F04817590740F042
S11311E0C0E007C0C0E005C0C1E003C0C1E001C069
S11311F0C1E0F80191838083CC2329F060E0841B53
S1131200950B0E9406060E94F807811102C00E94F5
S1131210D2018C2FDF91CF911F910F91089580916E
S11312206006882321F081E0809367060895109278
S1131230670620916B0601C02150822F90E0FC01CB
S1131240EE0FFF1FEE0FFF1FEE0FFF1FE80FF91F3A
S1131250E856F94F3081332379F3AC01440F551F1D
S1131260440F551F440F551F480F591FDF010180BC
S1131270F281E02D0280F381E02D1296FC93EE932F
S113128011974556594FE417F50729F442815381C4
S1131290FD0152834183FC01EE0FFF1FEE0FFF1F80
S11312A0EE0FFF1F8E0F9F1FFC01E856F94F0180C0
S11312B0F281E02D868197819093BD068093BC06D0
S11312C020936B060895CF93DF93EB016091BC06E6
S11312D07091BD06645F7F4F0E94D60061E0CE012D
S11312E00E940606DF91CF9108950F931F93CF9329
S11312F0DF93FC018B01A181B2818091BC069091A6
S1131300BD06EC01BF87AE878091BC069091BD06F7
S113131014962D913C911597EC01398B288B1496DA
S11313208D919C9115972091BC063091BD06245F48
S11313303F4FEC013B832A832091BC063091BD06CC
S1131340245F3F4F15963C932E931497A091BC06AF
S1131350B091BD065596FC93EE93549790819F5F90
S11313609083442311F00FEF1FEF642FC8010E94F4
S11313700606DF91CF911F910F910895CF93DF93CC
S1131380DC011596ED91FC9116970680F781E02D0E
S1131390A489B589C685D785808991899D838C83E5
S11313A0C089D189868597859B838A8311968D917F
S11313B09C9112979F01245F3F4F8217930731F44A
S11313C08089918912969C938E931197158A148A19
S11313D08C9181508C9380916006811160C0A285AC
S11313E0B385C481D581868197819D838C83C68191
S11313F0D781848195819B838A8311968D919C9159
S113140012979F012E5F3F4F8217930731F4868115
S1131410978112969C938E931197138612868C91C2
S113142081508C93868990916B06981710F4809361
S11314306B0690E0DC01AA0FBB1FAA0FBB1FAA0F0B
S1131440BB1F8A0F9B1FDC01A856B94F11960D9044
S1131450BC91A02DB583A48314968D919C9115976E
S1131460978386831496CD91DC9115973B832A83C9
S113147015963C932E931497A689B0E0CD01880F5E
S1131480991F880F991F880F991FA80FB91FA85675
S1131490B94FB387A2878C918F5F8C931CC049E7A7
S11314A056E0DA011196CD91DC911297D787C68761
S11314B08C819D81918B808B8C819D81DC01139625
S11314C03C932E9312973D832C83558B448BDA01E6
S11314D08C918F5F8C939689E091BC06F091BD0648
S11314E08689891720F481E08093670601C080E033
S11314F0DF91CF91089520916606FC01208320910D
S11315006C0630916D06328321830895CF93DF9367
S11315100FB6F8940F9240916C0650916D06EC0151
S113152029813A81DA01A21BB30BF881E0916606A6
S1131530FE1741F04217530728F0FB011182108275
S113154081E011C0EB0128813981A217B30740F46F
S11315502A1B3B0B398328830E947B0A80E003C04B
S11315601982188281E00F900FBEDF91CF91089508
S113157081E0809367060895DC01E091C606F0914E
S1131580C706808191E0811190E09C93911106C07F
S11315900580F681E02D80819181089580E090E0BE
S11315A00895FC01738362839187808746175707E8
S11315B090F0421B530B8485958548175907E0F436
S11315C0BF016E5F7F4F8091C4069091C5060E9453
S11315D0D60080E008954217530718F46217730782
S11315E068F4BF016E5F7F4F8091C6069091C70675
S11315F00E94D60080E0089581E0089581E0089576
S1131600EF92FF920F931F93CF93DF93EC018B0123
S11316107A0108C08C859D85080F191FE889F9890E
S1131620CE0109956C857D85600F711F9801A70116
S1131630CE010E94D10A8111EDCFDF91CF911F918C
S11316400F91FF90EF900895EF92FF920F931F93E5
S1131650CF93DF938C017B01E091C606F091C7061E
S11316600580F681E02DC681D781CE0102960E94C5
S113167007018A8982FF06C0A701B801CE010E9432
S1131680000B02C08E7F8A8BE889F989CE01099507
S1131690DF91CF911F910F91FF90EF90089509C0B2
S11316A00580F681E02D6FEF7FEF808191810E94AC
S11316B0240BE091C606F091C70680818111F0CF1A
S11316C08091C4069091C5069093C7068093C60680
S11316D0F093C506E093C40608950F931F93CF9328
S11316E0DF938C010E94D406EC018091BE06909198
S11316F0BF06C817D90730F40E944F0B81E0F801E8
S1131700808302C0F8011082D093BF06C093BE0646
S1131710CE01DF91CF911F910F910895CF92DF9267
S1131720EF92FF921F93CF93DF931F92CDB7DEB753
S11317307C01162F0E94CE06CE0101960E946D0BED
S11317406C018981811127C011110AC0CE14DF04F4
S113175038F00E94F807B601C7010E94240B1DC08F
S1131760112341F0E091C406F091C506808111E097
S1131770811110E0B7016C197D09412F8091C206D7
S11317809091C3060E9463040E94F807811105C06A
S11317900E94D20102C00E94F8070F90DF91CF91FE
S11317A01F91FF90EF90DF90CF900895EF92FF92FA
S11317B00F931F93CF93DF9300D000D000D0CDB709
S11317C0DEB77AC0898188230CF476C00C811D8130
S11317D0D8011A968D919C911B97892B21F0C801F1
S11317E002960E940701CE0106960E946D0B7C01B1
S11317F0E9818E2FEE0F990BAA0BBB0BFC013197DD
S1131800E930F10508F058C0E65DFF4F0C94E40C94
S1131810F80182898160828B2A813B816485758588
S1131820620F731FA701C8010E94D10A882309F41B
S113183043C0D80152968C91529782FF0DC06A81A1
S11318407B811C968D919C911D97680F791FA70130
S1131850C8010E94000B03C08E7FF801828BD8015F
S11318605096ED91FC915197C801099525C0F80156
S113187082898E7F828B20C0D80152968C91529798
S1131880816052968C9352976A817B811D967C93DA
S11318906E931C976E0D7F1D9701A701C8010E94CE
S11318A0D10A0AC0F801828981FD04C0C8010E94DE
S11318B0C40202C08E7F828B40E050E0BE016F5FA5
S11318C07F4F8091C2069091C3060E94D403811178
S11318D079CF26960FB6F894DEBF0FBECDBFDF9149
S11318E0CF911F910F91FF90EF900895CF93DF93C5
S11318F01F92CDB7DEB7CE0101960E94BC0A698162
S11319000E948E0B0E94D60BF6CF0FB6F8940F925E
S11319108091C2069091C306892BE9F481ED96E08B
S11319200E94C40088EC96E00E94C40081ED96E019
S11319309093C7068093C60688EC96E09093C506FC
S11319408093C40640E065E08AE00E94930390938C
S1131950C3068093C2060F900FBE0895EF92FF92C4
S11319600F930E94850C8091C2069091C306892B27
S113197091F00F2EF0ECEF2EF6E0FF2EF02D03E0A9
S113198020E030E045E550E068E770E086E79CE061
S11319900E944A0601C080E00F91FF90EF900895E5
S11319A0AA1BBB1B51E107C0AA1FBB1FA617B70781
S11319B010F0A61BB70B881F991F5A95A9F780959D
S11319C09095BC01CD010895EE0FFF1F0590F49191
S11319D0E02D0994FB01DC0102C001900D924150FD
S10D19E05040D8F70895F894FFCFA3
S11319EA035461736B31005461736B320054617335
S11319FA6B330049444C4500546D7220537663009E
S9030000FC
